:020000040000FA
:1000000018F09FE518F09FE518F09FE518F09FE5C0
:1000100018F09FE50000A0E1F0FF1FE518F09FE554
:1000200040000000C0030000BC030000B803000053
:10003000B403000000000000B0030000AC030000A7
:10004000B0009FE5AA10A0E35520A0E32430A0E370
:10005000043080E50130A0E3003080E50C1080E53D
:100060000C2080E5083090E5013B13E2FCFFFF0A1D
:100070000330A0E3003080E50C1080E50C2080E523
:1000800074009FE50410A0E3041080E50210A0E3D3
:10009000001080E564009FE5DBF021E300D0A0E1E3
:1000A000040040E2D7F021E300D0A0E1040040E2E8
:1000B000D1F021E300D0A0E1040040E2D2F021E33E
:1000C00000D0A0E1800040E2D3F021E300D0A0E125
:1000D000040040E210F021E300D0A0E120009FE501
:1000E000010010E31CE09F051CE09F1510FF2FE1AD
:1000F000FEFFFFEAFEE7C04680C01FE000C01FE031
:1001000090040040D9020000F0000000F50000005B
:10011000434F4C4C45474500464552475553534F76
:020120004E008F
:1001240000000000000000000000000000000000CB
:1001340010B4002206E000E001310B1C044CA34281
:10014400FAD30132041C131CA342F4D310BC70472D
:10015400E803000030B5051C281C0406240E2409FD
:100164000F200440201C0006000E002100F036F889
:10017400281C0406240E0F200440201C0006000E38
:10018400002100F02BF830BD00B56420FFF7D0FF4C
:100194000220FFF7DFFF6420FFF7CAFF2820FFF7E4
:1001A400D9FF6420FFF7C4FF0820FFF7D3FF6420C2
:1001B400FFF7BEFF0120FFF7CDFF6420FFF7B8FF74
:1001C4000620FFF7C7FF6420FFF7B2FF0C20FFF7FC
:1001D400C1FF6420FFF7ACFF00BDC04610B5041C8E
:1001E400081C012808D1174A174801681143016007
:1001F4001648FFF79DFF07E0124A154801681143AE
:1002040001601248FFF794FF124A13480168114332
:100214000160201C0206120E1205104801681143E9
:1002240001600F4A08480168114301600748FFF75D
:100234007FFF0B4A06480168114301600348FFF73A
:1002440077FF10BD00080000048002E0E80300000E
:100254000C8002E00000F0001C8002E0148002E048
:100264000004000030B5051C281C0406240E2409D3
:100274000F200440201C0006000E0121FFF7AEFFF2
:10028400281C0406240E0F200440201C0006000E27
:100294000121FFF7A3FF30BD00B5021C101C01288B
:1002A40004D0002804D18020014301E0C020014390
:1002B400081CFFF74FFF00BD10B5041C04E0201C10
:1002C40001340078FFF7CEFF201C00780028F6D117
:1002D40010BDC046264806C80B1C134305D0002396
:1002E4000B70491C9142FBD1F5E72248C01C032343
:1002F400984306C80B1C134306D00378401C0B70AC
:10030400491C9142F9D1F1E700B500211A48016076
:1003140000211A480160002119480160194A1A484D
:10032400016811430160194A1748016811430160CB
:10033400174A1548016811430160164A16480168B6
:1003440011430160FFF720FF00200021FFF7A4FF05
:100354001248FFF7B1FF01200021FFF79DFF10486D
:10036400FFF7AAFF0F48FFF7E3FEEDE700BDC04625
:10037400240100002C01000000C002E004C002E0DF
:1003840014C002E000040000088002E0000800003D
:10039400000010000000F000188002E018010000C6
:1003A40010010000E8030000FEFFFFEAFEFFFFEA81
:1003B400FEFFFFEAFEFFFFEAFEFFFFEAFEFFFFEAA1
:00000001FF
