:020000040000FA
:1000000018F09FE518F09FE518F09FE518F09FE5C0
:1000100018F09FE50000A0E1F0FF1FE518F09FE554
:1000200040000000A4030000A00300009C030000A7
:1000300098030000000000009403000090030000FB
:10004000B0009FE5AA10A0E35520A0E32430A0E370
:10005000043080E50130A0E3003080E50C1080E53D
:100060000C2080E5083090E5013B13E2FCFFFF0A1D
:100070000330A0E3003080E50C1080E50C2080E523
:1000800074009FE50410A0E3041080E50210A0E3D3
:10009000001080E564009FE5DBF021E300D0A0E1E3
:1000A000040040E2D7F021E300D0A0E1040040E2E8
:1000B000D1F021E300D0A0E1040040E2D2F021E33E
:1000C00000D0A0E1800040E2D3F021E300D0A0E125
:1000D000040040E210F021E300D0A0E120009FE501
:1000E000010010E31CE09F051CE09F1510FF2FE1AD
:1000F000FEFFFFEAFEE7C04680C01FE000C01FE031
:1001000090040040E5020000F0000000F50000004F
:100110007777772E656D626574726F6E6963782E7E
:10012000636F6D00900400409804004000000000E0
:1001300000000000000000000000000000B50220E8
:1001400000F00EF8282000F00BF80C2000F008F862
:10015000062000F005F8802000F002F800BDC0463F
:1001600000B5031C254A2648016891430160181C0C
:100170000206120EF02002401201214801681143CC
:100180000160204A20480168114301601F4A1E484F
:100190000168114301601B4A1D4801681143016059
:1001A00000F096F8174A1848016811430160134A95
:1001B0001348016891430160181C0206120E1201D7
:1001C000F020024012010E480168114301600D4AFF
:1001D0000D480168114301600C4A0B480168114346
:1001E0000160084A0A4801681143016000F070F894
:1001F000044A054801681143016000BD00FF00008A
:10020000108002E0000400000C8002E00008000002
:10021000048002E000B5031C204A21480168914394
:100220000160181C0206120EF020024012011C4848
:100230000168114301601B4A1B48016811430160BA
:100240001A4A194801681143016000F041F8154A43
:100250001748016811430160104A11480168914331
:100260000160181C0206120E1201F0200240120159
:100270000B480168114301600A4A0B4801681143A9
:1002800001600A4A084801681143016000F020F843
:10029000044A074801681143016000BD00FF0000E7
:1002A000108002E000040000048002E0000800006A
:1002B0000C8002E010B5041C04E0201C013400781E
:1002C000FFF7A8FF201C00780028F6D110BDC0461B
:1002D00000200130011C024A9142FAD97047C04601
:1002E000E8030000204806C80B1C134305D0002378
:1002F0000B70491C9142FBD1F5E71C48C01C03233D
:10030000984306C80B1C134306D00378401C0B709F
:10031000491C9142F9D1F1E700B50121144801705F
:10032000144A1548016811430160144A14480168D1
:1003300011430160FFF702FF8920FFF711FF114809
:10034000FFF7B8FF1820FFF70BFF00210E480160F0
:1003500003E00D480168013101600B4800680B495A
:100360008842F6D3EEE700BD24010000340100000E
:1003700000C11FE00000FF00188002E0000C000038
:10038000088002E01001000094040040D8D600006C
:10039000FEFFFFEAFEFFFFEAFEFFFFEAFEFFFFEAC5
:0803A000FEFFFFEAFEFFFFEA89
:00000001FF
